S00E00004D696E694F532E73726563E7
S21440000060920020D5394000D13940006F0740004B
S2144000106D074000690740006B0740000000000085
S2144000200000000000000000000000009F074000A5
S214400030D1394000000000005D07400063074000E3
S214400040D1394000D1394000D139400065094000DF
S214400050D1394000D1394000D1394000D139400033
S214400060D1394000F90E40000000000059314000F0
S2144000706D31400081314000D1394000350F40009D
S2144000800000000000000000D1394000D139400097
S214400090D1394000D1394000D1394000D1394000F3
S2144000A0D1394000D1394000D1394000D1394000E3
S2144000B0D1394000D1394000D1394000D1394000D3
S2144000C0D1394000D1394000D139400010B5054CF7
S2144000D0237833B9044B13B10448AFF300800123AF
S2144000E0237010BD300E002000000000F4B3400026
S2144000F00C4B43B10C480D4910B5AFF300800C488B
S214400100036823B910BD0A48036833B97047094BE2
S214400110002BF7D0BDE810401847064B002BF5D013
S214400120184700BF00000000F4B34000340E002023
S214400130F4B3400000000000034B1B6843F48023E8
S21440014019430160002070474C0E002041B9094A0F
S214400150136823F08073136002681343036070478C
S214400160044A136843F080731360026813430360C5
S214400170704700BF4C0E0020036823EA0101024B83
S2144001801B681943016070474C0E002082688368E4
S2144001909A4203D0826883689342FBD118467047E0
S2144001A0C06870472DE9F047ADF52C7D142111A8A5
S2144001B0144B984710B311ACC0EB40152544124F72
S2144001C0124E4FF00008DFF858902046B847B04728
S2144001D042464B46DFF84CA0D047CDE900012246C8
S2144001E00B4903A80B4B984703A80B4B98471F3463
S2144001F0AC42EAD10DF52C7DBDE8F0870748064BAA
S2144002009847F7E7D910400045104000E55B4000AE
S214400210ACA640003165400029034000C0A640001F
S2144002200000503FD15C400000B5ADF6040D79B1FA
S2144002304FF400626946084B98476844002300F82C
S214400240013C6846054B98470DF6040D5DF804FBE7
S2144002500348024B9847F7E77110400029034000D7
S21440026080A6400030B59FB00CAC124D0FCD0FC4E9
S2144002700FCD0FC495E80F0084E80F0018A80E4B6A
S21440028098471C9B1EAA02EB830353F84C2C189BE2
S2144002900393199B02931A9B01931D9B00931B9BF0
S2144002A0064905A8064CA04705A8064B98471FB028
S2144002B030BD00BF50A64000FD0A400090A640005A
S2144002C0316540002903400010B584B0054B064A0E
S2144002D006496846064CA0476846064B984704B011
S2144002E010BD00BFD0A64000D4A64000DCA640000B
S2144002F03165400029034000017851B170B504468D
S2144003000026044D3046A84714F8011F0029F9D1AD
S21440031070BD7047550E4000014A024B1A60704748
S214400320E8A74000500E002010B5034CA047034BF2
S2144003301868A04710BD00BFF9024000500E0020CC
S2144003402DE9F04FBFB05B4F38465B4CA0475B4E45
S2144003505B4B32465B490CA85B4DA8470CA8A047B0
S21440036006A85A4B98470A9B013B594A52F8232005
S214400370079B0293089B01930B9B0093099B55494F
S2144003800CA8A8470CA8A0473846A047524B019354
S214400390524B00933346524A524938A8A847DFF892
S2144003A068B1DFF868A14FF0000847E00A2C65D036
S2144003B0A4F12003DBB2192B06D82BFA03F313F073
S2144003C0010F01D02C7001354046B04704460A283C
S2144003D04ED00D28ECD001464046D047A4F141030C
S2144003E0DBB2192BEED9A4F16103DBB2192BDDD8B1
S2144003F02C700135E8E71CA913F8012B01F8012BF6
S214400400002AF9D101230593374D0027DFF80091E4
S214400410364E55F8044B49462046B047A0B122A96F
S2144004202046B04708B10137F3E7B7F1FF3F0BD09E
S2144004302F4B53F8273005991CA8984738A82D4BC2
S214400440984728AD2C4EBFE70CAA22A908462B4B4E
S2144004509847012807D00C9B33B1012BEED1284892
S214400460154B9847EAE7FEE72648134B9847E5E7DB
S2144004706B1C28700A2803D01D46A5E76B1C2C7001
S21440048003F8018C0B480C4B984722AA28A911F870
S214400490013B02F8013B13F0DF0FF8D102F8018C64
S2144004A028AB13F8012B202AA5D0002AF9D1CDF885
S2144004B01480A9E7ACA9400029034000D4A6400018
S2144004C0D0A6400060A7400031654000FD0A4000CD
S2144004D02000002074A74000A4A74000A8A7400022
S2144004E090A7400098A740000C0000208965400077
S2144004F050A74000F9024000950E4000811240008F
S214400500CCA74000B4A740000140FF03550E400072
S214400510ACA7400008B5094B984710F0010F09D129
S2144005200123194601FA03F2024204D101331F2B7C
S214400530F8D108BD0023184608BD00BF9907400003
S21440054038B5024619282ED8DFE800F02F0D2D0FBB
S214400550112D2D131517191B1D2D2D1F2123252752
S2144005602D2D2D2D292B154B20E0154B1EE0154B20
S2144005701CE0154B1AE0154B18E0154B16E0154BD2
S21440058014E0154B12E0154B10E0154B0EE0154BE2
S2144005900CE0154B0AE0154B08E0154B06E0154BF2
S2144005A004E0154B02E0154B00E0154B154C164980
S2144005B02046164DA847204638BD00BF44A84000F8
S2144005C050A8400068A840007CA84000A0A8400072
S2144005D0B0A84000C4A84000D8A84000F0A84000FA
S2144005E008A940001CA9400034A9400044A9400086
S2144005F058A9400068A940007CA940008CA940004A
S21440060030A84000540E0020A0A9400031654000AC
S21440061008B5034B9847034B9847034B984708BD8C
S21440062015054000410540008D14400008B5034BB9
S2144006309847034B9847034B984708BD150540001D
S214400640410540008D14400010B50A4B984740F4D1
S214400650E020094B9847094B984740F01000084B5C
S214400660984708490020084CA04708490120A04761
S21440067010BD00BF87074000810740009307400039
S2144006808D0740002D064000D5064000110640006C
S21440069008B5014B984708BD6D294000094B1960C5
S2144006A0094B03FB00F00138B0F1807F09D2074BBD
S2144006B05860F021064A82F8231000229A600722EA
S2144006C01A607047FC610020C0D4010010E000E0D2
S2144006D000ED00E010B1012803D07047024B1960CE
S2144006E07047024B19607047046200200862002081
S2144006F0014B1860704700BF0C62002038B518B92F
S21440070009200A4B984738BD014643F2B0620023A1
S21440071043F2AF6400250648E0FB014520462946E3
S214400720044CA047014B984738BD00BF010000204D
S214400730000E27073561400030BF7047DFF894F061
S214400740EFF3098020E9F00F80F309887047EFF354
S2144007500980B0E8F00F80F3098870471E4B1B688D
S21440076018471E4B1B68184702E001E000E0FFE711
S2144007701EF0040F01D01A4800E01A4800680047EF
S2144007801949086070471849086870471749086053
S2144007907047164908687047154908687047154BF2
S2144007A01B681847EFF309807047EFF3148343F054
S2144007B0010383F31488BFF36F8F7047EFF31483FE
S2144007C043F0020383F31488BFF36F8F704780F3C0
S2144007D009887047FDFFFFFF00620020FC61002093
S2144007E0046200200862002024ED00E014ED00E0E2
S2144007F028ED00E00C62002070B582B0064602ACE0
S214400800022344F8043D094D21462846084B9847A4
S2144008104FF40012074B5A63EE605620064B98473B
S21440082021462846054B984702B070BD00800040E0
S214400830A52A400000120E4001000020D52A4000A4
S21440084030B585B0044600230C224FF000610C48BA
S2144008500C4DA84709200C4B98470C4B019302942B
S2144008604FF4006303930A4C01A92046094B98476E
S2144008702046094B98472046084B984705B030BD60
S21440088000100E40492E4000C1324000000E27079F
S21440089000080E40493840007F3840008538400008
S2144008A030B587B0054600234FF4C0024FF00061D4
S2144008B00F48104CA0470F200F4CA047002303932F
S2144008C0049305930095C02301934FF4006302936D
S2144008D00F20A047094C0A4A69462046094B9847CC
S2144008E02046094B98472046084B984707B030BDEE
S2144008F0000E0E40492E4000C132400000800240AB
S214400900000E2707393940008D39400093394000A2
S21440091010B5054B98470B20044CA0470C20A04729
S2144009200D20A04710BD00BFF12B4000C132400053
S21440093038B50446084D00212846084B984704EB36
S2144009404414B4F5004F28BF4FF40044A1B22846E3
S214400950034B984738BD00BF30140E404D01400051
S2144009603901400008B50548054B984710F0020F7E
S21440097000D108BD034B1B689847FAE730140E4079
S214400980A10140008C0E002008B5064B0822C3F893
S2144009908020C3F880214FF400310348034B98472A
S2144009A008BD00BF00E100E030140E407901400071
S2144009B008B50248024B984708BD00BF30140E40A9
S2144009C08D0140000F4B4FF400021A61C3F8A0207F
S2144009D04FF480121A61C3F8A02002F18042A2F5BB
S2144009E0F9324FF480311161C2F8A0104FF4800202
S2144009F01A61C3F8A0204FF400221A61C3F8A02061
S214400A00704700BF00120E4004281BD8DFE800F0F5
S214400A100312141618005722530903F5001303F265
S214400A2007735B0281B102F01F02012101FA02F254
S214400A305A6370475422EFE71022EDE75622EBE761
S214400A405322E9E70022E7E702F01F02012101FAFC
S214400A5002F21A63704704281ED8DFE800F0031538
S214400A6017191B005722530903F5001303F20773A7
S214400A705B02D96B02F01F02012303FA02F20A421C
S214400A800CBF1846002070475422ECE71022EAE7D5
S214400A905622E8E75322E6E70022E4E710B50020B6
S214400AA0054B9847054CA0470028FCD00021044839
S214400AB0044B984710BD00BFF93140001D3240003E
S214400AC060140E401533400070B582B00446084DA1
S214400AD001230093C368026941692846054EB04722
S214400AE023686268A1682846034CA04702B070BDE0
S214400AF060140E408D34400085334000F0B585B01C
S214400B00044604AD002345F8043D0A4E0346021D44
S214400B1000F108013046084FB847009504F10C0331
S214400B2004F1100204F114013046044CA04705B00D
S214400B30F0BD00BF60140E402B3340001934400017
S214400B4008B5014B984708BD851740002DE9F0478A
S214400B5082B020381F4B53F820703B7803B30124F3
S214400B601D4EDFF88090DFF8808017F804A002ADB5
S214400B70022345F8043D29463046C8474FF4001343
S214400B80C8F83030C6F80CA05620144B9847294673
S214400B903046134B98470134E4B23B78A342E4D244
S214400BA002AC022344F8043D0B4D214628460D4B2B
S214400BB098474FF400120C4B1A630023EB60562004
S214400BC0064B984721462846054B984702B0BDE855
S214400BD0F08700BFDC0200200080004001000020BB
S214400BE0D52A4000A52A400000120E402DE9F04FBD
S214400BF083B04FF0000ADFF880B05746DFF87C90AD
S214400C000AF0070040F0B000D8471020D8473846D2
S214400C10D8478026144DDFF8688002AC022344F89B
S214400C20043D21462846C0474FF40013C9F83030EB
S214400C30EF6056200D4B9847214628460C4B984768
S214400C40013EEAD10AF1010ABAF1040FD8D10025D3
S214400C50084B1D60B020084CA0471020A0472846EF
S214400C60A04703B0BDE8F08F0080004001000020A0
S214400C70D52A4000880E0020F907400000120E409A
S214400C80A52A400038B50C46084B186000F007000F
S214400C9040F0B000064DA847E4B2C4F3021040F05E
S214400CA01000A84704F00F00A84738BD880E002063
S214400CB0F907400004207047014B1868704700BF92
S214400CC0880E002038B510B101281CD038BD4FF032
S214400CD0205120200D4B98471D200D4B98470D4C1A
S214400CE000230D4A0D4920460D4DA84704212046B5
S214400CF00C4B98470122002120460B4B9847204634
S214400D000A4B984738BD0A4B984738BDF92E4000E5
S214400D10C13240000080034040420F00000E2707CB
S214400D20012D4000492D4000352D4000432D400008
S214400D303D1840000000000010B584B018B10128EE
S214400D401AD0002016E004211B481C4B98471C4B29
S214400D50984717A3D3E900231A4CA04700221A4B02
S214400D601A4CA04702460B4600201749184CA0478D
S214400D70184B984704B010BD00220023CDE900234D
S214400D8003220023CDE90223134C6846A04750B106
S214400D90DDE90223501C43F10001CDE90201002B9E
S214400DA008BF042AF1D3DDE900010A4B9847E1E782
S214400DB00000000000FEAF4000800340532D40007E
S214400DC0E55B4000255F400000005940D15C400094
S214400DD069594000F5604000A9184000704700007F
S214400DE003281FD8DFE800F0020910170E4BD86B17
S214400DF080F00400C0F3800070470B4BD86B80F047
S214400E00010000F001007047084BD86B80F000509E
S214400E10C0F340707047054BD86B80F08040C0F3FD
S214400E208070704700207047000E0E4000120E4043
S214400E3008B510B1012804D008BD0846034B9847B2
S214400E4008BD0846024B984708BD00BF4108400011
S214400E50A108400008B510B1012809D008BD094ACC
S214400E60536913F0020FFBD00648074B984708BD5E
S214400E70064A536913F0020FFBD00448044B9847C8
S214400E8008BD00BF00080E408F384000008002407A
S214400E909D39400030B583B000238DF8073028B127
S214400EA0012810D09DF8070003B030BD0C4D0D4C06
S214400EB02846A04710F0010FFAD00DF10701084868
S214400EC0094B9847EEE7094D094C2846A04710F0D5
S214400ED0010FFAD00DF107010448064B9847E1E7A9
S214400EE000080E408B3840009F384000008002408B
S214400EF099394000B139400000B583B009480A4BE3
S214400F00984710F0010F02D103B05DF804FB0DF1D5
S214400F1007010448054B9847054B1B689DF807009A
S214400F209847F1E700080E408B3840009F38400055
S214400F30900E002000B583B009480A4B984710F041
S214400F40010F02D103B05DF804FB0DF10701044820
S214400F50054B9847054B1B689DF807009847F1E7F7
S214400F600080024099394000B1394000940E00207C
S214400F7070470000E9B1086003281AD8DFE800F09F
S214400F8002090F144FF000524A604FF4A0328A60B4
S214400F907047084A4A6044F6FC728A607047064AC0
S214400FA04A60064A8A607047054A4A604FF42042C3
S214400FB08A607047044001206092002000300000A4
S214400FC00090012070470000012817D1F8B5012293
S214400FD0134B1A704C20134B984708B10020F8BDAD
S214400FE0114B98470B24114D114F124E0020A84725
S214400FF030B1013CF2D03846B047F7E700207047A2
S2144010000D4C4FF40C72002120460C4B984721465D
S21440101000200B4B9847B0FA80F04009F8BD00BF5F
S214401020C8100020DD2E4000451B4000711B4000CC
S2144010306E281A0001000020980E0020956440009B
S2144010408953400008B5074B1B780BB9002008BDF4
S2144010500549064B984710B9034B186808BD002051
S21440106008BD00BFC8100020106200208558400010
S214401070F0B58DB0144B1B781BB9002420460DB03C
S214401080F0BD0D4616460122014603A80F4B984771
S214401090B8B9A6B100240E4F02AB012201A903A89D
S2144010A0B847029B012B06D19DF8043005F8013B5A
S2144010B00134A642F0D103A8064B9847DEE73446F3
S2144010C0F9E70024DAE700BFC8100020B15340001B
S2144010D049554000755740002DE9F04FD3B0204B9E
S2144010E01B7823B90025284653B0BDE8F08F0F463D
S2144010F0064601AB50934FF480735193194941A86B
S214401100194B984750BB0025DFF86480DFF864A091
S214401110DFF86490BD42E6D04AA941A8C0470028FF
S214401120E1D19DF83131002BDDD0509C23780BB9AE
S2144011300DF231149DF8303113F0100F0BD10135FC
S2144011402046D0471D2894BF214649463046074B87
S21440115098471F36DEE7BD42DED3C4E70025C2E728
S214401160C8100020C4A940008D5740005D6840006C
S2144011700D58400041694000B0A9400008B50249FA
S2144011800120024B984708BDCC100020750F400048
S214401190F8B506460C461546134B9847034618B115
S2144011A0B0F5A04F02D901231846F8BD0F4F4FF4B3
S2144011B0A042394630460E4B98473E680D4B1E605F
S2144011C00D4B596840B10D4A0B46081812F8011FDE
S2144011D003F8011B8342F9D1074B93E8070084E8E4
S2144011E007002E600223DFE745104000DC10002099
S2144011F071104000D8100020CC100020DF100020D6
S2144012000C4B98470C4B1C68A368022B06D00B4B24
S21440121098476060084B1A68094B1A60084B1B6871
S214401220054A13605868074B9847074B9847074B43
S214401230984700BF41074000DC600020A5074000FB
S214401240FC600020CF0740004F0740003D074000AD
S21440125010B5064C21460320054B98476068054B61
S2144012609847054A054B1A6010BD00BFF060002045
S214401270750F4000C116400050000020DC60002082
S21440128030B585B00D4614466A4601A9164B9847B8
S214401290022804D020600024204605B030BD134C00
S2144012A025600023A3601020114DA847114B984796
S2144012B0606000981038A8476068029B01338363DB
S2144012C04FF08073C3630C4B1C600C4B1C6801349E
S2144012D01C60012C01D00124DEE7094B98470949E0
S2144012E00320094B9847D7E791114000E060002063
S2144012F0FD164000D5164000FC600020EC60002043
S214401300CF074000011240009D06400038B5394BDB
S214401310984704684568836913F8023C1B2B67D8D6
S214401320DFE803F00E15661A1D2622662A2F34665D
S214401330393D4642494E5266565A5D666666666115
S214401340291C18BF012120462B4B984738BD204604
S2144013502A4B9847287038BD294B984738BD2046B9
S214401360284B9847286038BD2046274B984738BDBD
S2144013702046264B984738BD29462046244B98475A
S21440138038BDE9B22046234B984738BD2046224B0D
S2144013909847286038BD2046204B984738BD2046A1
S2144013A01F4B9847286038BDE0B21E4B984738BD63
S2144013B01D4B984738BD294620461C4B984738BD9C
S2144013C01B4B9847206038BD1A4B9847206038BD65
S2144013D02046194B984738BD184B984738BD184B90
S2144013E09847206038BD826829462046154B984766
S2144013F038BD00BFA5074000090A4000570A400014
S214401400DD0D4000E10D4000C90A4000FD0A4000E5
S214401410310E4000550E4000950E4000C50C400071
S214401420390D40004D0B4000ED0B4000850C400050
S214401430B50C4000B90C4000310940008909400015
S214401440B10940008112400008B50248024B984757
S21440145008BD00BF0D134000F106400038B50446F5
S214401460007828B1064DA84714F8010F0028FAD195
S214401470044B984700210130034B984738BD00BFC6
S2144014804D0B4000B90C4000850C40002DE9F04162
S2144014900546124B9847124E3046124CA047124F04
S2144014A03846A0472846A0473846104CA047304606
S2144014B0A0472846A04700250D4E4FF096080D4FF2
S2144014C001E04046B847002485F0010529462046FD
S2144014D0B0470134052CF7D1F3E700BFED0B4000D1
S2144014E0ECAA40005D144000ACA94000290340002F
S2144014F0090A4000FD0640002DE9F04387B0494BFD
S2144015009847494B9847494B9847494B9847494BCA
S21440151098474FF4E1310020474DA8474748484C8C
S214401520A0474848A047484B98474848A0474FF4EC
S214401530E1310120A8474648A0470020454DA8472E
S2144015404548A0470120A8474448A047444B9847F1
S2144015504448A047444B98476D46444E0FCE0FC56F
S21440156096E8030085E803006846414B98474148A3
S214401570A0470120404B984700284FD0012100202B
S2144015803E4CA04701210846A04701210220A04723
S21440159001210320A04701210420A0470027B94687
S2144015A0DFF81881364E49463846C047142423256E
S2144015B02846B047013CFBD10137042FF3D13220F7
S2144015C0304B9847002108462C4CA047002101206C
S2144015D0A04700210220A04700210320A047002169
S2144015E00420A047284B98472848154CA047284B2E
S2144015F098472848A047284B98472848A047284B54
S21440160098472848A047284B9847284B984740F487
S2144016100070274B984707B0BDE8F0832548264B17
S214401620984700BF9106400011094000C50F400092
S214401630710F400019034000310E4000ACA9400035
S21440164029034000E8A94000410B4000FCA94000A7
S21440165010AA4000C50C400028AA400040AA4000FE
S214401660C509400050AA40009D0A4000D0A940004D
S214401670C90A400060AA4000C90F4000090A40005D
S2144016804D0B4000FD064000ED0B400094AA400084
S21440169049064000A8AA400049144000C0AA40009D
S2144016A07D114000D4AA40005112400093074000EC
S2144016B08D07400080AA40008D144000850C4000F5
S2144016C0024B18600122024B1A70704704610020DA
S2144016D00061002008B5054B1B7813B1044B186811
S2144016E008BD0448044B9847F8E700BF0061002057
S2144016F00461002024AB40008D14400010B5044621
S2144017000A4B1B786BB10A4B1868A0EB840010F0AC
S214401710070F03D0013810F0070FFBD1044B1860B9
S21440172010BD0448044B9847EDE700BF0061002019
S2144017300461002008AB40008D14400070B582B0B4
S214401740064602AC022344F8043D094D214628468D
S214401750084B98474FF40012074B5A63EE605620EA
S214401760064B984721462846054B984702B070BD21
S21440177000800040A52A400000120E4001000020D4
S214401780D52A4000F0B585B0254D4FF000466E6333
S2144017905620244CA0472E635620A047022704AE6E
S2144017A046F8047D204C2046204B9847002500955F
S2144017B01F4B2A46314620461E4EB0470123236023
S2144017C0A8201D4CA0471F20A047D320A04728464E
S2144017D0A0474020A047A120A047C820A047DA2025
S2144017E0A0473846A0478120A0478F20A047A42086
S2144017F0A047A620A047D520A0478020A0478D2000
S214401800A0471420A047DB20A0474020A047D9206F
S214401810A047F120A047AF20A04705B0F0BD00BFCD
S21440182000120E400100002000800040D1294000F8
S214401830404B4C00252A40003D17400000B585B07F
S21440184000230393074B019342F210730293132035
S214401850054B984701A90548054B984705B05DF8E4
S21440186004FB00BF000E2707C13240000080014045
S2144018702537400010B586B00024019405940143F6
S2144018808DF8041001210291039304924F238DF8A2
S214401890143001A90248034B9847C0B206B010BDA9
S2144018A0008001408937400070B582B00446002071
S2144018B08DF804008DF8050001AB02220146274D45
S2144018C0A847054610BB9DF804209DF8053043EA1E
S2144018D002231BB29AB2002BBABFC2F30E024FF0DD
S2144018E0FF3001201E4B1B78DBB2032B0ED8DFE8FF
S2144018F003F002101C29D20900FB02F0194B98474E
S2144019000022194B194EB047C4E90001284602B0E0
S21440191070BD920900FB02F0124B98470022144B10
S214401920124EB047C4E90001F0E7520900FB02F04E
S2144019300C4B984700224FF07F530C4EB047C4E9FB
S2144019400001E3E7120900FB02F0064B984700222D
S214401950084B064EB047C4E90001D7E7751840006B
S21440196008610020055C40000000E03FD15C40007C
S2144019700000D03F0000B03F10B5074B196891F803
S2144019802230003318BF01234A7C09680348007898
S214401990034CA04710BD00BF0C610020156100201D
S2144019A08525400008B104207047334B9A68530998
S2144019B003F5001303F207735B02D96B02F01F02B4
S2144019C0012303FA02F20A4210D02B4B9B7B012BD9
S2144019D004D00422284B9A7302207047274B1B786A
S2144019E0002BF6D00022264B1A60F2E710B5224BA9
S2144019F09B7B042B05D0012B19D0032B2CD1032025
S214401A0010BD01221C4B9A731D4B1B683BB91B4BE8
S214401A101A701B4B1B4959601A60022010BD0022E9
S214401A20164B1A701848194B9847022010BD134B96
S214401A301B783BB1124B1B6813F4803F1AD0002230
S214401A400F4B1A600C4B02229A73114A1A600122FD
S214401A505A74002283F8222000220E4B1A70064C3D
S214401A600D4B1C600D4B9847A07B022814BF0020EE
S214401A70012010BD022010BD580400201461002033
S214401A8010E000E0C0E1E40025CA8200010000202A
S214401A90801A0600156100200C610020791940006C
S214401AA02DE9F041094C0027094E0A4D394641F6CA
S214401AB00D30B047804630B1A847C0B218B1013C9F
S214401AC0F4D14FF000084046BDE8F081410D0300D8
S214401AD0AD274000C527400010B582B00D4B1B68AF
S214401AE0998901230093102291400B480B4CA04744
S214401AF0034610B9184602B010BD064B18680121BF
S214401B001230074B984703460028F3D0054B9847BA
S214401B100346EFE70C610020091108002526400027
S214401B2045284000C128400008B5044B1B7803B147
S214401B3008BD0020024B9847FAE700BF1561002019
S214401B40C525400008B50D20054B98470422054B97
S214401B509A73FF22044B1A70044B984708BD00BF87
S214401B60C132400058040020156100205525400031
S214401B702DE9F04387B09A4B98470446012805D094
S214401B80984B9847204607B0BDE8F083964B1B68B5
S214401B900122DA7300251D749D81944B984729468F
S214401BA04FF48850924B984730B98F4B1B680324AC
S214401BB09C738C4B9847E5E74FF4D57145F2085037
S214401BC08B4B9847002829D10027874B1B68DB7B27
S214401BD013F0010F40F0DF81834B1B68DB7B03F083
S214401BE00903012B11D14FF4007141F21010804BC4
S214401BF098470028D9D07C4B1B68DB7B13F0010F3D
S214401C0003D07C4B98470028CFD07B4B9847764BE9
S214401C101B6800229A73734B9847B3E7774B9847F5
S214401C20B0F1FF3F00F0B581C0F30B00B0F5D57FB3
S214401C30BBD10127C9E7002140F23A506C4B984788
S214401C40F0B9694B1B680222DA7300214FF48850C2
S214401C50674B98470028A8D041F6EF354FF000086C
S214401C60634E664F414641F20110B04700289CD073
S214401C70B84710F0010F00F08480013DF2D194E7A0
S214401C805E4B984710F0804F05D0574B1A68D37B71
S214401C9043F00803D373002141F23B10544B98475E
S214401CA0002882D0504B1B68DB7B13F0010F00F0FE
S214401CB09081534B984700283FF477AF4A4B1B68B8
S214401CC05A7D02F007004F4951F820004FF47A71D0
S214401CD001FB00F1C2F3C3024B4850F8222002FB3E
S214401CE001F21A609A7C920940F02A81997E587EC9
S214401CF01A7E920242EA800242EAA112187FD97EF8
S214401D00490041EAE011C2F30B02013201F007013B
S214401D1002318A40D97D01F00F018A40920A5A600A
S214401D209989090441F23710314B984700283FF40F
S214401D303CAF01230093082200213448344DA84785
S214401D4000283FF432AF012104A8324B98470028C0
S214401D503FF42BAF304B984700283FF426AF9DF812
S214401D60103003F00F03012B00F00481002B00F02D
S214401D70F480022B00F003811B4B1B6810221A7460
S214401D80EFE0002140F23A50194B984700283FF4C4
S214401D900CAF1A4B984700F0C040B0F1804F05D1C9
S214401DA0114B1A68D37B43F00803D373002141F2EA
S214401DB03B100F4B984700283FF4F7AE104B984720
S214401DC000283FF4F2AE084B1A68937CC3F38303B3
S214401DD0013B032B22D8DFE803F08D90939600BF9B
S214401DE0A5194000291B40000C610020ED2540004D
S214401DF0AD274000A11A400079194000C527400091
S214401E00D91A40007CAB400098AB40003311080024
S214401E102526400045284000C12840001223137460
S214401E20537DC3F3C30003F007036D4951F82310F5
S214401E304FF47A7303FB01F36A4951F8201003FB11
S214401E4001F31360917E507E137E9B0243EA80032B
S214401E5043EAA113C3F30B0340F6FF718B420FD046
S214401E60107FD17E490041EAE011013301F00701BD
S214401E7002318B40D17D01F00F018B409B0A5360AD
S214401E80137C3F2B4BD90021009101234FF4007265
S214401E905548564DA84700283FF487AE0025544E77
S214401EA003A8B04700283FF480AE0135ADB2322DCE
S214401EB0F6D1504B1B689A7E597E1B7E9B0243EAA6
S214401EC0810343EAA213C3F30B0340F6FF72934227
S214401ED00ED1474E04A8B04700283FF466AE013501
S214401EE0ADB2352DF6D9434B1A68049B5B08536058
S214401EF03F4E12E01423137492E7222313748FE7A5
S214401F00302313748CE74023137489E704A8B04742
S214401F1000283FF44AAE0135ADB27F2DF6D94FF4D6
S214401F20007141F21010344B984700283FF43DAE04
S214401F30324B984700283FF438AE314B984766E618
S214401F40D97E987E5A7E120442EA00220A43C2F3A1
S214401F501502013252025A60E2E6264B1B681022F6
S214401F601A74244B1B68DB7B03F00903012B7FF4B8
S214401F7042AE38E61F4B1B681A221A74F1E79DF8EA
S214401F801230DB091B4B1B6814BF302220221A7408
S214401F90E7E7002719E6BF0741F6EF354FF00008A0
S214401FA0154EDFF86090414641F23710B0470028A2
S214401FB03FF447AE394641F22910B04700283FF477
S214401FC040AEC84710F0010F3FF435AE013DEAD1B0
S214401FD037E603F00903012B7FF417AE03E600BF94
S214401FE07CAB40003CAB4000081108002526400072
S214401FF0D12740000C610020AD274000A11A4000C8
S21440200079194000C527400008B5054B984708B1E8
S214402010002008BD034B9847034B1B68D87B08BD80
S214402020A5194000291B40000C61002008B5054B4F
S214402030984708B1002008BD034B9847034B1B68E0
S214402040586808BDA5194000291B40000C610020B7
S2144020500020704770B582B00E461546154B98471F
S214402060044610B1204602B070BD134B9847C8B125
S214402070124B1348012D98BF1846124B1B68DB7B4A
S21440208013F0080F08BF7602012300932B464FF447
S214402090007231460C4EB04740B10C4B1D800C4B85
S2144020A01D80DFE70B4B98470524DBE7094B984735
S2144020B00524D7E7A5194000A11A400011110800D1
S2144020C0121110000C6100202526400010610020EF
S2144020D012610020291B400010B50C46064B98475D
S2144020E020B90022054B1A80052010BD034A1388EC
S2144020F01C1B1480002010BD4528400010610020A5
S21440210010B50446134B984708B9052010BD84B156
S2144021100022114B1A80114B1B88012B0FD0002137
S21440212043F20C100E4B984768B10E4B9847002070
S21440213010BD094B1B88002BEDD0002010BD094B6D
S2144021409847002010BD002143F20C10044B9847DE
S214402150EBE700BFC128400010610020126100205C
S214402160AD274000291B400070B582B00E4615468C
S214402170114B98470446C0B9104B1148012D98BFE3
S2144021801846104B1B68DB7B13F0080F08BF76021F
S214402190012300932B464FF4007231460A4EB04757
S2144021A030B10A4B1D800A4B1D80204602B070BDE0
S2144021B0084B98470524F8E7A519400018910800F1
S2144021C0199110000C610020252640001061002067
S2144021D012610020291B400010B50C46064B98475C
S2144021E020B90022054B1A80052010BD034A1388EB
S2144021F01C1B1480002010BDC52840001061002024
S21440220010B50446094B984708B9052010BD34B1AF
S2144022100022074B1A80074B9847002010BD044BFE
S2144022201B88002BF7D0002010BD00BF452940007A
S21440223010610020291B400010B504460F4B9847FC
S214402240012818D018B1022810D0012010BD0C4B20
S2144022501B5D0BB1022010BD20460A4B984700F08C
S2144022600300002814BF0020022010BD0022044BAB
S2144022701A55022010BD032010BD00BF711B400040
S214402280186100200920400008B50020014B9847FF
S21440229008BD00BF3922400038B504460D46044B01
S2144022A098474000013828602046024B984738BD82
S2144022B02D2040003922400008B501460020014B41
S2144022C0984708BD9922400008B50020014B984722
S2144022D008BD00BF5120400010B5144601220A4BED
S2144022E0984720B102280CBF0220012010BD0121D2
S2144022F02046064B984708B1012010BD044B98472E
S214402300003018BF012010BD55204000D9204000A5
S2144023100121400008B50A4601460020014B984777
S21440232008BD00BFD922400010B5144601220A4B12
S214402330984720B102280CBF0220012010BD012181
S2144023402046064B984708B1012010BD044B9847DD
S214402350003018BF012010BD69214000D92140003F
S2144023600122400008B50A4601460020014B984726
S21440237008BD00BF2923400000B583B002A9FF2353
S21440238001F8013D01220A480A4B98470A4B1B8830
S214402390012B0CBFFE23FC238DF8063001220DF1E5
S2144023A006010348034B984703B05DF804FB00BFA3
S2144023B000800040F52A40001E61002070B582B0C3
S2144023C002ACFF2304F8013D0F4E01222146304661
S2144023D00E4DA847012221463046A84701222146F5
S2144023E03046A8470A4C9DF80730FF2B08D00122FC
S2144023F00DF107013046A847013CF4D1002000E02B
S214402400012002B070BD00BF00800040292B400074
S214402410400D0300164B1A88012A27D0154B198801
S214402420154B1B68B3FBF1F39A4202D901231846B9
S214402430704770B582B002ACFF2304F8013D0F4EE2
S2144024400122214630460E4DA847FD238DF8073021
S214402450012221463046A8470A4B9847034610B902
S2144024600521094A1170184602B070BD0123DEE707
S2144024701E6100201A610020246100200080004078
S214402480F52A4000BD2340001C610020F0B583B013
S21440249002AD002305F8013D104C114F114E0122AC
S2144024A029463846B0479DF8073013F0F00F08D05D
S2144024B0FE2B10D0013CF2D104220B4B1A700020A8
S2144024C007E013F0070F14BF07220B22064B1A70C3
S2144024D0002003B0F0BD0120FBE700BF20A10700AD
S2144024E000800040292B40001C61002010B582B0BF
S2144024F002A94FF6FF7321F8043D124C02222046F3
S214402500114B984701220DF1070120460F4B984783
S2144025109DF8073003F01102012A05D001220C4B2A
S2144025201A70002002B010BD03F01E03042B07D023
S2144025300A2B0CBF08220A22054B1A700020F1E72E
S2144025400120EFE700800040F52A4000292B40009C
S2144025501C6100200022084B1A70084B1B6913F4BC
S214402560803F00D0704710B5044C2046044B984737
S2144025700123236010BD00BF1C6100200080004086
S214402580D129400070B582B00022094B1A70094C20
S21440259004EB8004084D00920B4621462846074E21
S2144025A0B04721462846064B984702B070BD00BF4C
S2144025B01C6100207C04002000800040252A40004A
S2144025C0A52A400008B50022044B1A70044901EBC6
S2144025D080010448044B984708BD00BF1C6100209A
S2144025E07C04002000800040D52A4000F0B583B02F
S2144025F002ADFF2305F8013D0022074B1A700A245E
S214402600064F074E012229463846B047631E13F050
S214402610FF04F7D103B0F0BD1C61002000800040ED
S214402620F52A40002DE9F04385B004469146984689
S214402630FF238DF80F300023534A137000F03F02FB
S21440264042F040028DF808200A0E8DF809200A0C48
S2144026508DF80A200A0A8DF80B208DF80C1002AF70
S2144026604FF0080C0DF10D0E01E0774512D017F82B
S214402670011B62465B00DBB283EA010010F0800F6C
S21440268018BF83F009034900C9B2013A12F0FF02AD
S214402690F0D1EAE75B0043F001038DF80D303B4F85
S2144026A001220DF10F013846394DA847062202A9EE
S2144026B03846A84704A9FF2301F8093D01223846B9
S2144026C0344B98470727314E324D01220DF1070112
S2144026D03046A8479DF8073013F0800F0BD07B1E7E
S2144026E013F0FF07F1D10222274B1A700023184639
S2144026F005B0BDE8F083284A136013F0080F19D1DF
S21440270013F0040F1BD133F001031DD114F4005F06
S2144027101FD114F4007F25D114F4806F2AD11F4BAB
S214402720A3F800901E4BA3F8008000221D4B1A60B1
S2144027300123DCE70622144B1A700023D7E7092250
S214402740114B1A700023D2E701220F4B1A70002358
S214402750CDE7154B984703460028DAD103210A4AAD
S2144027601170C4E70C4900230B6001220748094B4F
S2144027709847D1E7084C042221460448054B984721
S21440278023681BBA2360CAE71C6100200080004013
S214402790F52A4000292B4000206100201A610020C5
S2144027A01E61002024610020BD23400010B582B089
S2144027B0002200921346024CA04702B010BD00BF54
S2144027C025264000014B1868704700BF2061002056
S2144027D010B582B004460022144B1A70144B1A8867
S2144027E0144B1968B1FBF2F302FB13131BB9124BDF
S2144027F09847034680B1042221461048104B98471C
S2144028000C4A136804331360094A1188B3FBF1F28B
S21440281001FB12331BB10123184602B010BD022241
S21440282001A90648064B98470123F5E71C6100209E
S2144028301A610020246100208D2440000080004062
S214402840292B40002DE9F04F83B00022164B1A701A
S21440285039B34C1EA4B281461546DFF85CB0DFF8AB
S2144028605C80124FD8478246B8B1B8F8002009EBD2
S214402870050138460E4EB047B8F800100D440D4AD4
S21440288013680B441360022201A93846B047013C46
S214402890A4B24FF6FF739C42E4D1504603B0BDE865
S2144028A0F08F4FF0010AF8E71C61002000800040DE
S2144028B0292B4000246100208D2440001A6100200E
S2144028C0012070472DE9F84381460025154B1D70C1
S2144028D0DFF86C80144E154F00E021464C1EA4B223
S2144028E0D9B1C047328809EB05013846104B9847A6
S2144028F031880D440F4A13680B4413600E4B9847BB
S214402900034658B1002CE8D00C4B984703460028A5
S214402910E3D10521034A117000E001231846BDE8C3
S214402920F88300BF1C6100201A6100200080004030
S214402930F52A400024610020ED244000BD234000DD
S2144029407923400008B5064B984728B90346052129
S214402950044A1170184608BD034B98470346F9E7EA
S214402960BD2340001C6100201524400010B50E48D1
S2144029700E4B98473E2100200D4B98470D4CA047E4
S2144029800028FCD00C4B98470C4A0D4B9A620D4CD5
S214402990A0470028FCD010200B4B98470B4B98477D
S2144029A00148024B984710BD000E2707913B400058
S2144029B03D32400091324000A1324000013F13209A
S2144029C000040E40B132400095314000813A40004C
S2144029D010B50446104B984780232360636843F045
S2144029E001036360636843F010036360636823F029
S2144029F08003636000212046084B9847636823F0B5
S214402A0002036360636823F004036360002120468A
S214402A10034B984710BD00BF453540005535400034
S214402A206B3540002DE9F04104460D4616461549E3
S214402A301846154B9847074600231A4629682046ED
S214402A40DFF85C80C0470822296820460F4B98472D
S214402A50FAB2296820460E4B984708222968204635
S214402A600C4B98477208296820460B4B984786F0CF
S214402A70010202F0010229682046084B9847BDE84B
S214402A80F08100BF000E270713364000FF35400098
S214402A9029364000B93540007D3540009B35400022
S214402AA04F36400008B5436813F0040F06D0096857
S214402AB00F2900D908BD064B984708BD0968032969
S214402AC0F8D8012303FA01F1C943014B9847F1E7CF
S214402AD05535400010B50446236913F4007FFBD0FB
S214402AE00F212046024B98474FF08073236010BD5D
S214402AF0553540001AB110B40C46114406E000208B
S214402B00704714F8013BC360A1420BD043F69923AB
S214402B10026912F0020FF4D1013BF9D16FF00200C6
S214402B2010BC70470020FBE73AB170B415460C461F
S214402B300D44FF2640F2012112E000207047C66097
S214402B4043F69923026931EA020204D0013BF9D1E7
S214402B506FF002000EE0836804F8013BA5420BD0FC
S214402B6043F69923026912F0020FE8D1013BF9D1EE
S214402B706FF0020070BC70470020FBE708B10120F0
S214402B80704708B5014B984708BD00BF89224000F2
S214402B9008B10120704708B50846014B984708BD64
S214402BA0B9224000B0FA80F04009704708B10120D1
S214402BB0704708B5014B984708BD00BFC922400082
S214402BC008B10120704708B508461146014B9847A2
S214402BD008BD00BF1523400008B10120704708B566
S214402BE008461146014B984708BD00BF6523400084
S214402BF0F8B53848384B98470B20384CA0470C203F
S214402C00A0470D20A047364B4FF400021A631A61C6
S214402C10C3F8A020334C04256561C4F8A05065660F
S214402C20C4F8905065656562C4F88050226F22F003
S214402C3004022267626F22F0040262674FF4801239
S214402C401A631A61C3F8A0204FF4803222632261CF
S214402C50C4F8A0204FF480021A631A61C3F8A0207B
S214402C604FF000620C212048204B9847204F3946B1
S214402C700320204EB04739462846B04739460C20F8
S214402C80B04739460D20B04739460E20B0474FF082
S214402C9080510920B04718490A20B04707F14057ED
S214402CA039465520B04739465F20B04713494C2037
S214402CB0B0476566C4F8905065656562C4F8805054
S214402CC0236F23F004032367636F23F004036367D3
S214402CD0F8BD00BF50140E40C9394000C132400014
S214402CE000120E40000E0E4000100E4019304000FC
S214402CF001000008F92E40000100001001000028E5
S214402D0030B4012404600024446040F20225C0F838
S214402D102051C0F80441C0F8144145685200B1FB48
S214402D20F2F2013A120292B22B431A434260204614
S214402D3030BC70474368D201D2B219430A4342605E
S214402D407047022303607047012303FA01F10161D3
S214402D5070470F299ABF503050F821000020704726
S214402D604264B1F1C05F39D013D8B1F1006F25D0BD
S214402D70B1F1805F0AD1036F13430367436F416F1E
S214402D800B4023EA02034367426070470029FBD1A9
S214402D907047B1F1205F20D009D8B1F1005FF3D180
S214402DA0036F13430367436F13434367ECE7B1F185
S214402DB0405F12D0B1F1605F0FD0E5E710B4016F0D
S214402DC0046FD34321401C4619400167436F416F4F
S214402DD00B4023404367426010BC7047036F016F4F
S214402DE00B4023EA02030367436F13434367CBE773
S214402DF0416412F0010F14BF4166016612F00A0FDB
S214402E0014BF0162416212F0020F07D112F0080FA0
S214402E1018BFC0F88410416101607047C0F8801048
S214402E20F9E710B4019C416444B9016643B10165B9
S214402E3042B941630161016010BC70474166F5E7E5
S214402E404165F5E70163F5E770B582B0054616467D
S214402E501C46B1F1005F14D00AD9B1F1405F22D0D0
S214402E60B1F1605F1FD0B1F1205F16D0002012E0B4
S214402E70B1F1805F05D0B1F1C05F02D0B1F1006F13
S214402E80F4D132462846104B984714F0010F14BF31
S214402E906E662E66012002B070BD1A4631460B4B58
S214402EA098470120F7E704F001030093C4F380033A
S214402EB0B1F1605F14BF0022012231462846044C1F
S214402EC0A0470120E7E700BF612D4000F12D4000FC
S214402ED0232E4000C06C7047806C7047430903F552
S214402EE0001303F207735B02DB6B00F01F0023FA4C
S214402EF000F000F00100704770B582B00D464309FF
S214402F0003F5001303F207735C0201F0F043B3F1DC
S214402F10005F53D00AD8B3F1805F2DD0B3F1C05FC5
S214402F203BD0B3F1006F15D0002023E0B3F1405FF3
S214402F3055D0B3F1605F52D0B3F1205FF4D100F0CA
S214402F401F0101262A4606FA01F120462F4B9847D4
S214402F5030460FE000F01F000126864032464FF014
S214402F60006120462A4B984715F0010F14BF66664D
S214402F702666012002B070BD00F01F000126864084
S214402F8032464FF080512046214B984715F0010FAE
S214402F9014BF666626660120ECE700F01F00012697
S214402FA0864032464FF0C0512046194B984715F0A0
S214402FB0010F14BF666626660120DBE700F01F009F
S214402FC00126864032464FF000512046104B984727
S214402FD015F0010F14BF666626660120CAE705F0A5
S214402FE0605200F01F01012605EA06030093C5F370
S214402FF08003B2F1605F14BF0022012206FA01F19D
S2144030002046044CA0473046B4E700BFF12D4000B0
S214403010612D4000232E400070B582B005460E4616
S214403020144602F0F043B3F1005F3DD00AD8B3F146
S214403030805F21D0B3F1C05F2AD0B3F1006F0ED0CD
S214403040002017E0B3F1405F3AD0B3F1605F37D06D
S214403050B3F1205FF4D1234B984701200AE00A469B
S2144030604FF00061204B984714F0010F14BF6E6676
S2144030702E66012002B070BD0A464FF080511A4BB2
S214403080984714F0010F14BF6E662E660120F1E7D4
S2144030900A464FF0C051144B984714F0010F14BF26
S2144030A06E662E660120E5E70A464FF000510E4B4D
S2144030B0984714F0010F14BF6E662E660120D9E7BC
S2144030C004F0605204F001030093C4F38003B2F1AD
S2144030D0605F14BF0022012231462846034CA047B9
S2144030E00120C7E7F12D4000612D4000232E40000F
S2144030F02DE9F84381460F46124B98470546484609
S214403100114B9847054013D0104C04F1600603E07D
S214403110B4420DD010345DB12068B842F8D1616831
S2144031202942F5D0E3689847636825EA0305EFE748
S214403130074B1B6823B1074B1B680BB148469847A3
S214403140BDE8F883D52E4000D92E400028610020E7
S214403150306200209861002008B50B210148024BE0
S214403160984708BD000E0E40F130400008B50C21CF
S2144031700148024B984708BD00100E40F130400011
S21440318008B50D210148024B984708BD00120E4075
S214403190F1304000174A136B23F070031843106356
S2144031A0936E13F0080F0AD14FF4006311498A6EEC
S2144031B012F0080F03D1013BF9D1012070470D4AA8
S2144031C0136B23F0030343F002031363936E13F071
S2144031D0080F0AD14FF4006306498A6E12F0080FB2
S2144031E005D1013BF9D101207047002070470020EF
S2144031F0704700BF00040E40012803D0054A064B26
S2144032001A607047044A936843F0254343F480139A
S2144032109360F3E7080000A510140E40054B5B6969
S21440322013F0800F1DBF044B986EC0F3C0100020F3
S214403230704700BF10140E4000040E40C8B9114A33
S214403240136A090289B223F45C1323F0030343F4A0
S2144032505C1343F001030B431362936E13F0010FAC
S214403260FBD0084A136A43F09B7343F480331362DF
S214403270704704490B6A044A1A40044B13430B62D6
S214403280704700BF00040E40FCFFC8FE0200370136
S214403290024B986E00F48030704700BF00040E402A
S2144032A04FF00052014B9A62704700BF00040E4038
S2144032B0024B986E00F00200704700BF00040E40BC
S2144032C022281ED81F280CD8114B9A690123834008
S2144032D0934318D0012303FA00F00D4B18610020E9
S2144032E0704720380A4BD3F8082101238340934384
S2144032F00BD0012303FA00F0054BC3F80001002071
S214403300704701207047002070470020704700BF7C
S21440331000040E4021B9436823F001034360704720
S214403320436843F001034360704730B4856884685F
S214403330A54203D085688468AC42FBD161B1C4F332
S214403340015000EB8005C4F3034000EB450014F445
S214403350800F18BF0C30086042B1C4F3023101EB55
S2144033608101C4F3032000EB4101116043B1C4F373
S214403370021202EB820204F00F0404EB42041C60CB
S21440338030BC7047F0B4446814F0010F05D00C29E7
S2144033903DD90C394FF4800700E000271D4CA4FBB4
S2144033A00356F60806EB8605A3EB450343EA0613E9
S2144033B0A4FB0265ED0843EA053305EB8505A2EB61
S2144033C0450543EA05233B43A4FB0142D20843EAB2
S2144033D0025302EB8202A1EB420143EA01418369B8
S2144033E013F0040FFBD0036843F0010303608369C6
S2144033F013F0010FFBD00123C3618160036823F003
S21440340001030360C06A00F00100F0BC704700276B
S214403410C4E700BFCDCCCCCCF0B4049EC568C4682D
S214403420A54203D0C568C468AC42FBD199B1C4F389
S214403430033000EB8000C4F3032707EB4007C4F3D8
S214403440021000EB800504F00F0000EB45006425F9
S21440345005FB0070086042B1C4F300508100084488
S214403460C4F3034101EB4001116043B1C4F3017260
S21440347002EB8202C4F3036101EB42021A6016B10A
S214403480C4F342543460F0BC7047000070B42A4D18
S214403490A5FB0346F608039C640544EA067406EB5F
S2144034A08606A3EB460344EA0363A5FB0264E408EE
S2144034B043EA045304EB8404A2EB440243EA024288
S2144034C01E4BA3FB01439B0942EA03121C4BA3FB82
S2144034D001435B09A5FB0364E40804EB8404A3EB07
S2144034E044031A43A5FB0143DB0803EB8304A1EB2B
S2144034F0440142EA0122A5FB0315ED0805EB8505CC
S214403500A3EB450542EA0532836913F0040FFBD06E
S214403510036843F002030360836913F0010FFBD096
S2144035200123C361C260036823F002030360C06ADC
S21440353000F0020070BC7047CDCCCCCCD34D6210AE
S2144035401F85EB5108B51520014B984708BD00BFB5
S214403550C1324000436823F4702343604368090443
S21440356001F47021194341607047436823F07F435C
S2144035704360436843EA01614160704732B900EBFB
S2144035808100036B23F001030363704700EB810067
S214403590036B43F001030363704732B900EB8100CD
S2144035A0036B23F002030363704700EB8100036B59
S2144035B043F0020303637047042A03D06AB1082A23
S2144035C016D0704700EB8100036B23F008030363BB
S2144035D0036B43F004030363704700EB8100036B07
S2144035E023F008030363036B23F00403036370476D
S2144035F000EB8100036B43F008030363E1E700EB55
S21440360081010B6B23F0F0030B630B6B1A430A63C9
S2144036107047431E1944B1FBF0F0431EFE2B94BF87
S21440362000B24FF0FF30704772B110B4144600EB52
S21440363081010B6B23F47F430B630A6B42EA04223F
S2144036400A63002010BC70474FF0FF30704710B43C
S21440365000EB8101086B80B208630C6B44EA03639D
S21440366043EA02430B6310BC704700002A4B994262
S21440367049D8A3F57A5399422BD910B4274CA4FBCA
S2144036800234A40B043C264B0B449B00B2FBF3F2E3
S214403690043AFF2C39D9002101316408FF2C0DD99A
S2144036A00729F9D113029BB2090401F4E0210B4328
S2144036B0E4B223430361002010BC7047FF2AF1D9CF
S2144036C00629EFD801315208FF2AEBD90629F9D945
S2144036D0E8E74900B2FBF1F2043AFF2A11D9002389
S2144036E001335208FF2A01D9072BF9D1110289B2BA
S2144036F01B0403F4E0230B43D2B21A4302610020BA
S21440370070470023F2E701207047FF2A88BF002158
S214403710D8D80021C6E700BF801A0600F119760502
S2144037200012FD3F38B504460D464FF0FF33836226
S214403730036A80230360036B08230360202303602F
S214403740042303600A684968054B9847012814BF5C
S214403750002001206B7A012B04BF4023236038BD34
S2144037606D3640000A4659B103780129C4BF4178F6
S21440377041EA0323022A04DD827842EA032300E07A
S2144037800023184670470000F8B5CC68002C4FD090
S2144037900B4605468E68002068604A68120202F4AE
S2144037A0407242F48052097C090401F4FE010A4347
S2144037B06A60E86059681846224B9847E860012CD2
S2144037C00FD001232B6000202B6A13F4807F36D164
S2144037D047F22F5147F230574FF0010E4FF0020C90
S2144037E019E003232B600120EEE70A4670460CE002
S2144037F008B9C5F800C013F0020FF6D070462B6B20
S2144038003370013C01363A4664B12B6A13F4807F2C
S21440381011D1511E8AB1012CEAD013F0020FEED11D
S2144038200A46F1E72B6A13F0010FFBD02B6A00E043
S21440383001242046F8BD0524FBE70924F9E70524C2
S214403840F7E700BF6537400010B4AC2303600B6851
S2144038504A68B3FBF2F31B095C1E4FF6FE729442B5
S2144038600BD803628B68436040F20223C0F82031D5
S21440387050230360002010BC70470120FBE7402324
S2144038800360704710230360704740697047436980
S21440389013F0020F1ABFC161002001207047436930
S2144038A013F0010F1DBF83690B7000200120704785
S2144038B010B40B01934214D9C9004B0803EBC20263
S2144038C0B2FBF1F2D3085C1E4FF6FE718C4201D972
S2144038D0012017E0416841F4002141600CE00120DE
S2144038E010E0590801EBC202B2FBF3F2D3085C1EAB
S2144038F04FF6FE718C42F2D8120402F4E0221A43CC
S2144039000262002010BC70470A4BC0F8E430002327
S21440391043604362836288230360242303604FF43A
S214403920807303604FF4002303604FF4003303605A
S214403930704700BF0041535570B505460C461646C5
S2144039400F4B984700220F4B1A60A4B132462168AD
S21440395028460D4B9847024678B96368A1680B43E2
S21440396021690B43E1680B4306490B6069680B43CA
S2144039706B60104670BD0122FBE70122F9E700BFED
S214403980093940009C610020B13840004023036064
S214403990704710230360704740697047436913F0CF
S2144039A0020F1DBFC1F30801C1610020012070470E
S2144039B0436913F0010F05D08369C3F308030B6016
S2144039C000207047012070474FF400434360704723
S2144039D0FEE7000008B5214B214A9A4228D9214BE0
S2144039E01E4A9A420CD2013B9B1A23F0030304332F
S2144039F013441B4951F8040B42F8040B9A42F9D180
S214403A0000BF194B194A9A420AD2013B9B1A23F02F
S214403A10030304331344002142F8041B9A42FBD1AB
S214403A20134B144A9A60144B9847144B9847FEE73A
S214403A300A4B0B4A9A42E3D20A4B0848181A1146D8
S214403A40043A02440028DBD0C1F1040152F80409CC
S214403A5043F8040DCA42F9D1D2E700BF0000002067
S214403A60F4B34000300E00205C620020300E002090
S214403A7000ED00E000004000456440004D59400025
S214403A803C4B1B6B03F00303032B0ED8DFE803F01D
S214403A90021C3838384B5B6913F0800F14BF4FF464
S214403AA000424FF4FA42354B1A60324B1B6B03F020
S214403AB07003702B55D02F4B1A6B3049C2F302124D
S214403AC00B68D3400B6070472A4B1B6A13F0807F0D
S214403AD003D02B4A294B1A60E7E72A4A274B1A603D
S214403AE0244B1B6A03F07003102B05D0202BDCD12F
S214403AF0234A224B1A60D8E7234A204B1A60D4E761
S214403B001C4B1B6A13F0807F18D01D4A1B4B1A6053
S214403B10184B1B6B03F00303022B164A07BF916A30
S214403B20926AD16AD26A1548C1F30A41036801FB1A
S214403B300333D2B2B3FBF2F30360B6E7114A0F4B3E
S214403B401A600C4B1B6A03F07003102B05D0202B19
S214403B50DED10B4A094B1A60DAE70B4A074B1A606C
S214403B60D6E7064A13680949A1FB03135B081360AE
S214403B70704700BF00040E4010140E408004002022
S214403B80001BB70000093D0000127A00ABAAAAAAA3
S214403B901A4B984214D91A4B984219D9194B984245
S214403BA01DD9194B984221D9184B984294BF4FF0D3
S214403BB00423174B174A136002F5007213607047D0
S214403BC04FF08063134A136002F50072136070472B
S214403BD0114B104A136002F50072136070470F4B8A
S214403BE00C4A136002F50072136070470C4B094A8A
S214403BF0136002F500721360704700BFFF2C31015E
S214403C00FF596202FF869303FFB3C404FFE0F50545
S214403C1000050004000A0E400001000400020004F3
S214403C20000300040A4B1B6853B1094B1B681A1863
S214403C300849914208DB1046054A1060184670470E
S214403C40054A034B1A60F0E74FF0FF30704700BF5D
S214403C50A0610020FC3F01206092002010B5044681
S214403C6000210F480F4B9847012C01D9012010BD69
S214403C7020460D4B9847032806D120460A4B9847C6
S214403C80032801D1012010BD38B92046074B98477C
S214403C90002814BF0420002010BD012010BD00BF26
S214403CA060140E40153340007D2B4000AD2B400085
S214403CB008B5054B984720B102280CBF03200120C9
S214403CC008BD002008BD00BF7D2B40002DE9F04F09
S214403CD083B080460D4614461F46154B984718B984
S214403CE0012003B0BDE8F08F064601A94046114BBF
S214403CF09847B14606FB0742019B03FB06639A4280
S214403D0001D90420EDE7BA4677B176020027DFF8FE
S214403D1028B02A4621464046D84738B901374C4451
S214403D2035445745F5D1DCE70020DAE70120D8E7EF
S214403D30A52B4000912B4000C12B40002DE9F04FB1
S214403D4083B080460D4614461F46154B984718B913
S214403D50012003B0BDE8F08F064601A94046114B4E
S214403D609847B14606FB0742019B03FB06639A420F
S214403D7001D90420EDE7BA4677B176020027DFF88E
S214403D8028B02A4621464046D84738B901374C44E1
S214403D9035445745F5D1DCE70020DAE70120D8E77F
S214403DA0A52B4000912B4000D92B400010B582B087
S214403DB01446032927D8DFE801F01F070F02012326
S214403DC01360002002B010BD01A9114B9847019B1B
S214403DD0013323600020F5E70E4B9847082814D897
S214403DE04FF48B7323FA00F010F0010F01D101203D
S214403DF0E8E700202070E5E7074B984700280CBF0F
S214403E0000200320DEE70420DCE70120DAE700BFDD
S214403E10912B4000A52B40007D2B400030B58BB049
S214403E20114C07AB08AA09A92046104DA84703AB7A
S214403E30009304AB05AA06A920460D4CA047049B58
S214403E401B04059843EA4053099843EAC023089860
S214403E5043EA4013079843EA50030698A0F2BC7022
S214403E6043EA40600BB030BD60140E402B33400038
S214403E70193440003AB101388A1811F8013B00F86D
S214403E80013F9142F9D1704722B1821800F8011BD8
S214403E908242FBD1704702398369023B99423DBF5B
S214403EA08378806A01FB030000207047024600F1D9
S214403EB00B010020C30143EA500312F8010B50FAED
S214403EC083F3D8B28A42F5D17047000098B108B55E
S214403ED002780AB9092008BDC2888A4201D0092062
S214403EE008BD4078054B984700F00100002814BFF5
S214403EF00320002008BD0920704700BFB13C4000A9
S214403F0038B5044601230A4600F1300140781D4D7D
S214403F10A84708B1032038BD94F82F2294F82E32D3
S214403F2043EA02231BB2184A934201D0022038BD0E
S214403F3094F8692094F868301B0443EA026394F8C6
S214403F406620134394F8672043EA022323F07F4316
S214403F500E4A934213D094F8853094F884000004B7
S214403F6040EA036094F88230184394F8833040EA7D
S214403F70032020F07F40801A18BF012038BD002063
S214403F8038BD00BFCD3C400055AAFFFF4641540017
S214403F90F8B503681C78303C092C0AD85D783A2D71
S214403FA001D0002406E002330360072C02D90B2020
S214403FB0F8BD0024AD4B53F824500D60002D00F0A2
S214403FC03D8116462B787BB16878A94B984710F010
S214403FD0010F09D1002E00F0338100F004000028C4
S214403FE00CBF00200A20F8BD00232B70E0B268709A
S214403FF0A04B984710F0010F01D00320F8BD26B122
S21440400010F0040F01D00A20F8BD002128469A4B34
S2144040109847012806D00024032800F01381C8B131
S2144040200D20F8BD95F8F2310BB90D20F8BD95F886
S214404030F93195F8F841240444EA036495F8F631DA
S2144040401C4395F8F73144EA0324214628468A4B18
S2144040509847E1E795F83C2095F83B3043EA022341
S2144040601BB2B3F5007F01D00D20F8BD95F8473060
S21440407095F8462052EA03220DD195F8573095F828
S2144040805620120442EA036295F854301A4395F8D3
S214404090553042EA0322EA6195F840E085F803E0AD
S2144040A00EF1FF33DBB2012B01D90D20F8BD95F898
S2144040B03D60AE70002E00F0C780731E334201D0C4
S2144040C00D20F8BD95F8423095F8411041EA03219D
S2144040D0298111F00F0F40F0B98095F8440095F80B
S2144040E0433053EA00230DD195F8530095F85230EB
S2144040F01B0443EA006395F85000034395F85100CB
S21440410043EA002395F83F0095F83E7057EA0027AB
S21440411000F09E8002FB0EFE07EB111070448342B7
S214404120C0F098801B1AB3FBF6F3002B00F0948087
S21440413040F6F576B3428CBF022601264FF6F57C54
S214404140634500F2A3800233AB612044A8623C443E
S2144041502C62002900F0888074446C62022E0FBFE7
S2144041605B0003EB430103F0010303EB510303F24F
S214404170FF13B2EB532F75D34FF0FF332B61002361
S214404180EB604AE095F82F2295F82E3243EA022358
S2144041901BB23A4A93424BD195F8332095F83230C9
S2144041A01B0443EA026395F83020134395F8312008
S2144041B043EA0223324A93423CD195F8172295F8B7
S2144041C016321B0443EA026395F81422134395F80B
S2144041D0152243EA02232B4A93422DD195F81F22FB
S2144041E095F81E321B0443EA026395F81C221343DB
S2144041F095F81D2243EA0223EB6095F81B2295F8BA
S2144042001A321B0443EA026395F81822134395F8C2
S214404210192243EA02232B6103262E701A4A13887A
S21440422001339BB21380EB800020E8622871F8BD12
S2144042300326F2E70326F0E70326EEE70C20F8BD58
S2144042400020F8BD0120F8BD0D20F8BD0D20F8BDBA
S2144042500D20F8BD0D20F8BD0D20F8BD0D20F8BD91
S2144042600D20F8BD0D20F8BD0D20F8BDA46100203E
S214404270B13C40005D3C4000013F400055AAFFFF76
S2144042805252614172724161C46100200233AB6197
S2144042902044A86227442F620029E1D195F85F00A8
S2144042A095F85E10090441EA006195F85C00014308
S2144042B095F85D0041EA002169629B0003F2FF1316
S2144042C0B2EB532FCAD34FF0FF332B610023EB6082
S2144042D06B7195F8613095F8602042EA03222244DB
S2144042E06A61012305F130016878034CA047002835
S2144042F03FF448AF032690E7CD3C40002DE9F04719
S21440430001F109020369002B5ED0446994F80CE081
S2144043102378202B1DD0254601F111074FF0E508E4
S2144043200EF0080C08E0434602F8013BBA4210D0B3
S21440433015F8013F202B0CD0052BF4D0BCF1000F14
S214404340F2D0A3F14106F6B2192EEDD82033DBB2F7
S214404350EAE7237A202B20D0551C2E231370237A8D
S214404360202B19D004F1080702F1040C2A460EF05F
S214404370100507E002F8013B62450ED017F8013FF2
S214404380202B0AD0002DF5D0A3F14106F6B2192E07
S2144043909CBF2033DBB2EDE72A46E37A0B72E57F1B
S2144043A0A37F1B0443EA0563257F2B43657F43EACF
S2144043B005230B60657E237E43EA05238B80E57DDF
S2144043C0A37D43EA0523CB80002313708F692FB368
S2144043D0CB691BB30369F3B1028C4FF6FF739A4265
S2144043E01ED0D0F81C80B8F80000D8B10D467E1E0E
S2144043F00024A246DFF838905146C847A0B1EB6982
S214404400013BA34212D9013406F8010F38F81400D4
S2144044100028F1D100E0002400233B55BDE8F0879A
S2144044200024F9E70024F7E70024F5E70024F3E743
S214404430D95840002DE9F047C76A8F4235D00E461E
S214404440044603791BB92EBB0020BDE8F08700F177
S214404450300801233A4641464078184DA84738BBB5
S21440446000232371236AE26913449F42EBD2E57826
S214404470012DE8D94FF0010ADFF84090E3691F4468
S21440448053463A4641466078C847013DEDB2012D55
S214404490F4D1D8E70123324604F130016078084D64
S2144044A0A84740B9E662BDE8F0870020BDE8F0873F
S2144044B00120BDE8F0870120BDE8F0873D3D400083
S2144044C0CD3C400001296AD9F8B58369994268D243
S2144044D00C4606460378022B2FD0032B41D0012BE7
S2144044E002D04FF0FF30F8BD01EB5107016A01EBF7
S2144044F057212D4B984710B14FF0FF30F8BDC7F30A
S2144045000803334493F830500137316A01EB5721A2
S2144045103046254B984710B14FF0FF30F8BDC7F3F3
S2144045200807F01990F8300045EA002014F0010F13
S21440453014BF0009C0F30B00F8BD016A01EB14215B
S214404540194B984710B14FF0FF30F8BD600000F4AB
S214404550FF70304490F8313090F8300040EA032045
S214404560F8BD016A01EBD4110F4B984710B14FF0DC
S214404570FF30F8BDA00000F4FE7000F13002324477
S214404580D17893781B0443EA0163304490F83000B6
S2144045901843537840EA032020F07040F8BD0120CD
S2144045A070470120F8BD00BF35444000F8B50546C9
S2144045B00C46C180816801293DD003689A699142C2
S2144045C001D30220F8BD61B91A78032A06D000222A
S2144045D0EA601A89A24221D80220F8BD596A002909
S2144045E0F5D09E783601B44210D3174F2868B847A6
S2144045F00146B0F1FF3F20D0012820D92B689B69A7
S21440460098421ED2A41BA4B2A642EFD9E9602868FD
S2144046100E4B984700EB1410286103E05B6A03EBEF
S21440462014132B612B68303304F00F0403EB44144F
S2144046306C610020F8BD0220F8BD0120F8BD0220C4
S214404640F8BD0220F8BD00BFC5444000973E40007C
S2144046502DE9F041012940F28F808369994201D3C8
S21440466002278AE015460C4606460378022B4ED0B3
S214404670032B5FD0012B03D00227012333717CE04C
S21440468001EB5108016A01EB58213D4B984707461C
S2144046900028F2D1C8F3080314F0010F1CD03344AD
S2144046A093F8302002F00F0242EA051283F83020D9
S2144046B008F1010801233371316A01EB5821304675
S2144046C02F4B9847002853D1C8F30808C5F3071264
S2144046D0B04488F83020D0E7334483F8305008F1AF
S2144046E0010801233371316A01EB58213046244BCF
S2144046F0984700283ED1C8F3080806EB080393F80D
S214404700303023F00F03C5F303221A43E0E7016A73
S21440471001EB14211A4B984707460028ADD1630099
S21440472003F4FF73334483F83050C5F3072283F80D
S2144047303120A2E7016A01EBD411114B9847074696
S21440474000289AD1A10001F4FE7101F130033344F0
S214404750DA781206314402F070422A4381F830205B
S214404760C2F307215970110C9970120EDA7084E763
S214404770074682E7074680E702273846BDE8F081CD
S214404780354440002DE9F0410546884641B9C668A3
S21440479086B183699E4228BF01263446274F17E0DC
S2144047A0264B9847034601283ED9AA69904240D3F3
S2144047B04646F2E70126F0E721462846B847034634
S2144047C070B1B0F1FF3F34D0012832D0B4422FD080
S2144047D00134AB699C42EFD3012E27D90224EBE784
S2144047E06FF0704221462846154B98470346A8B9B5
S2144047F0B8F1000F0AD1EC602B69B3F1FF3F1BD034
S214404800013B2B6101236B71234612E02246414651
S21440481028460B4B984703460028ECD0012B0CBF8C
S2144048204FF0FF33012304E0012302E0002300E0C1
S21440483000231846BDE8F0812346FAE7C544400009
S2144048405146400001292ED92DE9F84304460E462C
S2144048508369994203D302221046BDE8F883164F77
S2144048604FF00009DFF8548003E02E46A369AB42C0
S214404870F2D931462046B8470546B8B1012817D088
S214404880B0F1FF3F16D04A4631462046C047024662
S2144048900028E1D12369B3F1FF3FE6D0013323611D
S2144048A001236371E1E70222104670470022D3E7F6
S2144048B00222D1E70122CFE7C544400051464000DE
S2144048C02DE9F84FC4880134A4B214B90420BDE8D9
S2144048D0F88F036913B90420BDE8F88F0E460546E5
S2144048E014F00F0710D101330361C16831B9036872
S2144048F01B89A34208D80420BDE8F88F0068837857
S214404900013B13EA141308D0EC802B68303303EBDA
S21440491047136B610020BDE8F88F324B98478046BE
S21440492001284DD9B0F1FF3F4DD02868836998459E
S2144049303ED316B90420BDE8F88FE9682A4B98475D
S214404940804610B90720BDE8F88F01283ED0B0F168
S214404950FF3F3ED000212868244B984700283BD193
S21440496028684FF4007200213030214B98472E685B
S214404970414630461F4B9847F06200264FF0010BE9
S214404980B246DFF868902B689978F2B291420BD91C
S21440499083F804B051462868C8470136F8B92A68F3
S2144049A0D36A0133D362EEE71646DA6A961BDE62B6
S2144049B0C5F80C80414628680E4B98472861A3E707
S2144049C00220BDE8F88F0120BDE8F88F0220BDE840
S2144049D0F88F0120BDE8F88F0120BDE8F88F012050
S2144049E0BDE8F88FC5444000854740003544400048
S2144049F0893E4000973E40002DE9F04F85B0054681
S214404A000021624B9847804608BB4FF0FF0BD946C3
S214404A105F4FDA4695E00F2A1DD0B9F1000F04D15A
S214404A2020465C4B9847824511D04FF6FF732B8447
S214404A30AB69DA7A12F0010F7AD104F10B0014F860
S214404A40011B13F8012B91426CD1A042F7D140468E
S214404A5005B0BDE8F08FD5F81C80B8F1000F69D0DE
S214404A6016F0400F0CD094F80DA006F0BF06EB8869
S214404A702B8494F80DB0D34508D04FF0FF0959E089
S214404A80B14518BF4FF0FF0954D1F2E794F800A0A3
S214404A902AF0400A0AF1FF3A0AEB4A030AEB83037C
S214404AA0DFF8FC9009F10D0A01200396CDF804B01A
S214404AB01E4602950FE01846374B98478346FE2E13
S214404AC05BD8751C38F81600334B9847834558D149
S214404AD02E46D14513D019F8012BA3185978A35C5C
S214404AE043EA01230028E6D14FF6FF729342F0D006
S214404AF0DDF804B0029DDA464FF0FF091AE0DDF813
S214404B0004B03246039E029D237813F0400F04D033
S214404B1018B138F81230002BEDD1013E5FFA86F915
S214404B20DA4607E04FF0FF0904E04FF0FF0901E0E6
S214404B304FF0FF0900212846184B9847804600282A
S214404B4085D129692868B847804600287FF47FAF1A
S214404B506C69267876B1E37A03F03F02E52EE4D01E
S214404B6013F0080F3FF457AF0F2A3FF474AF4FF0DF
S214404B70FF09DFE74FF0040869E7DDF804B0029D5F
S214404B80B9E7DDF804B0029DB5E700BFAD4540008B
S214404B9035444000AD3E400019594000C1484000F1
S214404BA0D8AB40002DE9F04F89B004468569D0F86F
S214404BB01CB00C22294605A8A84B98479DF81F30E4
S214404BC013F0010F79D00023EB72E3610B2205A9A5
S214404BD02846A24B984701273B464FF02008DFF86F
S214404BE09C92DFF878A232E03B4630E0134602E083
S214404BF0002300E013462B4405E0414603F8011B22
S214404C00591B072907D8072AF7D808A9114411F8CD
S214404C10141C0132F2E72046C847064600283ED11B
S214404C200137BFB2642F38D00B2205A92846D0479B
S214404C30052FD9D93B465946DA0342EA530331F8A1
S214404C40022B12FA83F39BB20A88002AF4D10DF1A4
S214404C501306072203F00F0000F13001392988BF00
S214404C6000F13701013A06F80119C3F30F13002B80
S214404C70F0D17E2108AB134403F8141C002AB5D0AB
S214404C802B78202BB4D02946002301339A42B1D04A
S214404C9011F8010F2028F8D1ADE7072604E0642F6D
S214404CA000F09F80042803D0304609B0BDE8F08F5E
S214404CB09DF81F30EB72C4F81CB09DF81F3013F0FF
S214404CC0020F14D0BBF800307BB1002301339BB2F7
S214404CD03BF81320002AF9D11933614F87FB03278D
S214404CE0DB17C3EBA707BFB202E00023F4E70127B8
S214404CF0002120465B4B984706460028D4D14FF00B
S214404D00000A5546DFF86881D346DFF860910AE02E
S214404D106B1C9BB29F4266D01D4601212046C84769
S214404D2006460028C0D121692068C04706460028AC
S214404D30BAD163691B78E52B00D023B9002DE7D1A3
S214404D40B4F806A0E4E75D46E7E751462046454B03
S214404D50984706460028A7D1A069434B984700903D
S214404D600027019719E0714662E04FF6FF729342C2
S214404D7002D039F811300BB94BF0400B80F800B038
S214404D80236801221A7139462046384B9847064612
S214404D90002889D1013DADB23DB321692068344B2E
S214404DA09847064600287FF47FAFD4F81C90606989
S214404DB05FFA85FB9DF8003043730F23C372077379
S214404DC08776C7760BF1FF3101EB410301EB830198
S214404DD0284A02F10D08019B4FF6FF764FF0FF0A76
S214404DE029E0072660E7012BAFD821692068204BD1
S214404DF09847064600287FF457AF65692022002171
S214404E0028461D4B98470B22A1692846134B9847C6
S214404E10A369DB7A03F018032B73236801221A7107
S214404E2042E792F800E000F80EA086448EF801A013
S214404E300132424599D0B342F3D001F1010E39F820
S214404E4011301178435401444FEA132C81F801C0C5
S214404E50002B88D171463346EAE700BF753E4000D6
S214404E604FECC44EAD454000AD3E4000C14840000A
S214404E7035444000D8AB4000893E4000F9494000E8
S214404E802DE9F84F04464FF0FF094E460425404FA3
S214404E904FF6FF785AE00F2946D113F0400F0BD05B
S214404EA090F80D9003F0BF03E288228490F80DE05E
S214404EB0CE4506D0FF2643E09E4218BFFF263FD190
S214404EC0F4E7D4F81CA0067806F03F06013E06EB51
S214404ED0460206EB82062F4901F10D094FF0010C00
S214404EE003E042454BD1894511D011F8015B421988
S214404EF092F801B0425D42EA0B22BCF1000FF0D0BE
S214404F00FE2E3CD82AF8162094460136EBE7027867
S214404F1012F0400F04D0FE2E31D800222AF8162078
S214404F20013BDEB2F1460BE01EB91B4B984781456C
S214404F302BD04FF6FF73238427E0FF2600E0FF26A2
S214404F4000212046154B98470546E0B92169A1B196
S214404F502068B8470546B0B96069037893B1E52B39
S214404F60EBD02E2BEBD0C27A02F03F0112F0080FA6
S214404F7091D00F2991D0FF26E2E735B103E0F14604
S214404F80FF26DDE70425002323612846BDE8F88F89
S214404F9035444000D8AB4000AD3E4000C1484000DC
S214404FA070B5044600212D4B9847034650B92378E8
S214404FB0032B09D0002211466078294B9847031CE2
S214404FC018BF0123184670BD6379002BF2D0002627
S214404FD0E66204F130054FF4007231462846214B14
S214404FE09847552384F82E32AA2384F82F3252232A
S214404FF084F8303084F83130612384F832304122EE
S21440500084F83320722184F8141284F8151284F838
S214405010162284F81732236984F81832C3F307221D
S21440502084F819221A0C84F81A221B0E84F81B32B4
S214405030E36884F81C32C3F3072284F81D221A0C56
S21440504084F81E221B0E84F81F320123626929460B
S2144050506078054DA8476671ACE700BF3544400010
S214405060AD3D4000893E40003D3D40002DE9F04FBB
S21440507083B0824688460B782F2B0CD05C2B0AD008
S2144050800023CAF8083098F800301F2B06D9DFF8FE
S214405090F49244460CE008F10108F1E7002150463E
S2144050A0B24B984703460022CAF814202EE11C460D
S2144050B02746234613F8010B2F28F8D05C2808BF54
S2144050C01C46F5D0DAF81CB080B21F2840F22D817D
S2144050D02F2800F02F815C2800F03581ABF10206C6
S2144050E00125A84612E073BB26F8022F6B1C14F865
S2144050F0010F1F2840F21B812F2800F01D815C28DD
S21440510000F01A81B3F5807F1DD01D464146C84742
S2144051100246C0B17F28E7D8222800F0F6802A232E
S214405120934998B29042DED011F8013F002BF8D157
S214405130DAE7013D00F0E98032F8023D202BF8D056
S2144051402E2BF6D00DB90623E0E06F004FF0000896
S2144051502BF815800B222021DAF81800854B98474B
S214405160ABF10201434600E0013331F8022F202A1A
S214405170FAD02E2AF8D00BB146F00306023F0BEBCE
S21440518007023BF807102E2905D0013D03D032F820
S214405190021D2E29F9D1082200924FF00008CDF8C2
S2144051A0048005E0AF4200F0D18046F003063B465F
S2144051B05F1C3BF8130050B32028F6D02E28F1D0C1
S2144051C0009B984519D2AF4200F0C0807F286CD82B
S2144051D02B2879D02C23684A99B2814272D012F893
S2144051E0013F002BF8D1A0F141039BB2192B76D892
S2144051F0019B43F00203019369E0009B0B2B48D0D0
S214405200AF4200F0A68046F0030640F2A280DAF8ED
S21440521018301A78E52A45D0009B082B6BD0019AA7
S21440522002F00C030C2B6DD002F00302032A69D067
S21440523016F0020F0BD1019A02F0030BBBF1010FDF
S21440524008BF46F01006042B08BF46F00806DAF8FA
S2144052501830DE725046494B9847DAF81830DA7AFA
S2144052600346002856D112F0040F4FD1DAF8142026
S214405270D37A13F0100F56D0517D137D43EA0121A7
S214405280D07E937E43EA002343EA0143CAF80830BF
S2144052900EE746F00306DAF818301A78E52ABED14B
S2144052A00B22009205221A70B6E70021C847034633
S2144052B0002858D0324A134413F8800C46F00206B1
S2144052C010B185E7002B8ED046F003065F20DAF853
S2144052D0183003F808003B4608F1010868E7A0F1DB
S2144052E061039BB2192BF2D8019B43F00103019353
S2144052F0203880B2EBE7019B4FEA830B5FFA8BF3D3
S21440530001938CE746F0020692E70623184603B060
S214405310BDE8F08F0428F9D102F00402002A14BF39
S21440532003460523F2E70523F0E701230025FC1892
S214405330042603E001230025FC180026002DE4D0B7
S2144053400BEB4502F8E601230025F5E7009B0B2B07
S2144053509FD0019B9B00DBB201932B460B22009211
S2144053604FF0080824E746F00206ADE7AD4540009A
S21440537069AC4000893E400075AC4000F9494000A9
S214405380E8AB4000D9584000072801D90B207047A9
S214405390064B53F820300BB100221A7009B1002397
S2144053A00B70024B43F8201000207047A461002089
S2144053B02DE9F041ADF50E7D0546019116460023D8
S2144053C0036002F01F0702F01E0285A901A8584B91
S2144053D0984782AB8B9302AB8C9340B103468A9C32
S2144053E016F01C0F17D1002B40F092800DE001996B
S2144053F085A8504B98478A9C03460028F0D1002C3D
S21440540000F08B8016F01C0F16D1E37A13F0100FC5
S2144054104FD004237CE0042B05D047F008078A9C35
S214405420002B57D074E085A8434B984747F00807B1
S2144054308A9C034638B16BE0E37A13F0110F73D1C0
S21440544016F0040F72D117F0080F3FD03B4B984729
S214405450A073C0F30723E373030C2374000E607439
S2144054600023E37223776377A377E377627D267D15
S21440547046EA0226E17EA27E42EA0122A376E3764F
S2144054802375637585980123037152EA06461BD03F
S214405490D0F82C8031462A4B98470346002837D10F
S2144054A08598013EC6604146264B9847034658B10C
S2144054B02EE016F0020F04D013F0010F01D00723A0
S2144054C026E016F0080F01D047F02007859BDB6AE0
S2144054D0EB612C62AF71627D237D43EA0222E17E5E
S2144054E0A37E43EA012343EA02432B61E27FA37F84
S2144054F01B0443EA0263227F1343627F43EA02238C
S214405500EB600023AB60AB61859A2A60D288AA80A4
S21440551018460DF50E7DBDE8F08116F01C0F01D142
S21440552006237DE7062378E70723F1E70823EFE71E
S214405530913F40006D504000A54B40001D3E40004E
S21440554045484000354440002DE9F04F83B00446BE
S2144055508946154698460023C8F80030818800687A
S214405560584B98470190002840F0A880A37913F044
S214405570800F40F0A18013F0010F02D10723019362
S2144055809CE0E668A368F61AAE4228BF2E46002E78
S2144055904CD193E061694C4B984757E0A37963F050
S2144055A07F03A3710223019388E0A37963F07F030E
S2144055B0A3710123019381E0A37963F07F03A37174
S2144055C0022301937AE0A37963F07F03A37101235A
S2144055D0019373E04FF40072303109EB40203B4BAF
S2144055E098475FE0A561A568C5F30805C5F5007551
S2144055F0B54228BF3546A1692068354B98470028F4
S21440560053D1A168C1F30801303123682A461944B2
S21440561048462E4B9847A944A3682B44A360D8F825
S21440562000302B44C8F80030761B47D0A268C2F33F
S2144056300803002BD7D120688378013B03EA522326
S21440564013F0FF0708D1002AA4D120690128A5D964
S214405650B0F1FF3FA9D06061D4F800A06169504620
S2144056601C4B984705460028A6D03D445FEA562B7B
S214405670B8D09AF8023007EB0B029A4288BFA3EBE9
S214405680070B5FFA8BF32A4649469AF80100124FF9
S214405690B847002897D121680B791BB1C86A401BD0
S2144056A0834597D84FEA4B25B5E7A37963F07F0348
S2144056B0A3710123019301E002230193019803B0F3
S2144056C0BDE8F08FCD3E4000C5444000753E4000EA
S2144056D035444000973E4000CD3C400038B5044637
S2144056E0818800681F4B9847034618B9A27912F084
S2144056F0200F01D1184638BDE16920681A4B9847FB
S21440570003460028F6D1256AEB7A43F02003EB7275
S214405710E3682B77A3891B0A6B77E389AB77E37B38
S214405720EB772369AB76238A1B0AEB76638A2B7565
S214405730638A1B0A6B750D4B9847A875C0F3072301
S214405740EB75030C2B76000E6876A37923F02003C6
S214405750A371236801221A712068054B98470346B7
S214405760C8E700BFCD3E4000354440001D3E4000E7
S214405770A14F400010B50446034B9847034608B96E
S21440578000222260184610BDDD56400010B5ADF52B
S214405790067D044601910022014601A8184B984711
S2144057A0034618B118460DF5067D10BD83ABA361C0
S2144057B003ABE36101992046124B98470346C0B9B4
S2144057C0636973B1DA7A12F0100F16D0597D1A7DDC
S2144057D042EA0122D97E9B7E43EA012343EA024302
S2144057E0A3602368DB88A38000212046064B9847A9
S2144057F00346042B08BF0523D4E70523D2E700BFA2
S214405800913F40006D504000AD45400070B5ADF54D
S214405810047D04460E4681880068154B9847054629
S21440582058B976B181ABA36101ABE3612046114B19
S214405830984704280BD060B1054628460DF5047DF0
S21440584070BD002120460C4B98470546F5E70023DF
S214405850236131462046094B984700212046084B95
S2144058609847042801D00546E7E700232361E4E78C
S214405870CD3E4000814E4000AD454000FD424000D8
S214405880C148400030B5ADF50F7D01900D46002271
S21440589085A901A80D4B9847044618B120460DF53A
S2144058A00F7D30BD82AB8B9302AB8C93019985A85C
S2144058B0074B984704460028F0D18A9B23B12946D7
S2144058C085A8044B9847E9E70624E7E7913F400060
