S00D00004D794170702E7372656330
S31520014000604A012008B50120044B984780F0010140
S31520014010C9B20120024B9847002008BD95400120D6
S315200140209140012010B5054C237833B9044B13B1C7
S315200140300448AFF300800123237010BD1C460120E4
S3152001404000000000F04101200C4B43B10C480D4902
S3152001405010B5AFF300800C48036823B910BD0A4898
S31520014060036833B97047094B002BF7D0BDE81040E0
S315200140701847064B002BF5D0184700BF000000005B
S31520014080F041012020460120F041012000000000DE
S3152001409000DF704700B581B0684600F003F800984C
S315200140A001B000BD01DF7047024B13B1024800F099
S315200140B005B8704700000000C940012000230146D1
S315200140C01A46184600F01EB838B50A4C0A4D641B2C
S315200140D0A4100AD004F18043013B05EB8305013C82
S315200140E055F804399847002CF9D1BDE8384000F03D
S315200140F077B800BFF0410120EC410120704700BF95
S31520014100704700BF2DE9F8432C4D0646286898468E
S315200141100F469146FFF7F2FF294B1C68D4F8483128
S31520014120002B3ED05A681F2A1CDC02F1010E76B103
S3152001413003EB82010124C1F88890D3F888019440C9
S315200141402043022EC3F88801C1F8088123D0023208
S31520014150C3F804E0286843F82270FFF7D1FF002056
S31520014160BDE8F883174B0BB34FF4C870AFF300804B
S315200141700346D8B1D4F848210260002141600A469D
S31520014180C4F848014FF0010EC0F88811C0F88C110F
S31520014190002EDCD0CCE7D3F88C110C43C3F88C412C
S315200141A0D5E704F5A673C4F84831BBE72868FFF7BD
S315200141B0A7FF4FF0FF30BDE8F88300BF1846012066
S315200141C0C841012000000000F0410120F8B500BFE0
S315200141D0F8BC08BC9E467047A940012049400120F1
S315200141E0F8B500BFF8BC08BC9E46704725400120A3
S315200141F000000000DC44012044450120AC4501209B
S315200142000000000000000000000000000000000087
S315200142100000000000000000000000000000000077
S315200142200000000000000000000000000000000067
S315200142300000000000000000000000000000000057
S315200142400000000000000000000000000000000047
S315200142500000000000000000000000000000000037
S315200142600000000000000000000000000000000027
S315200142700000000000000000000000000000000017
S315200142800000000000000000000000000000000007
S3152001429000000000000000000100000000000000F6
S315200142A00E33CDAB34126DE6ECDE05000B000000BB
S315200142B000000000000000000000000000000000D7
S315200142C000000000000000000000000000000000C7
S315200142D000000000000000000000000000000000B7
S315200142E000000000000000000000000000000000A7
S31120014610000000000000000038460120D8
S7052001400099
