S00D00004D794170702E7372656330
S315200140000002000080B592B06C46114D0FCD0FC451
S315200140100FCD0FC495E80F0084E80F000D4F0E4E0B
S315200140200E4C0CA8B847109B12AA02EB8301119BD8
S315200140300F9A51F84C1C3046A0470C9B0D9A0E99AD
S315200140400748A047074D2846A0472846A047E8E746
S31520014050BC450120A9420120EC450120394101201E
S31520014060FC450120F845012010B5054C237833B9CC
S31520014070044B13B10448AFF300800123237010BD14
S31520014080BC4A012000000000904601200C4B43B1A0
S315200140900C480D4910B5AFF300800C48036823B9CD
S315200140A010BD0A48036833B97047094B002BF7D076
S315200140B0BDE810401847064B002BF5D0184700BF26
S315200140C00000000090460120C04A012090460120B0
S315200140D00000000010B5074B98470446064B984749
S315200140E00134B4FBF0F2002102FB1040034B984748
S315200140F010BD00BFCD420120B9420120B1420120AD
S315200141008A4211D391B1F8B504464518084E094F94
S3152001411002E0B847A54205D014F8010B0A28F8D0C9
S31520014120B047F7E70120F8BD00207047012070470E
S31520014130AD420120D54001200FB42DE9F04F85B0C5
S315200141400EAB53F8046B03930027DFF8E490DFF8F6
S31520014150E4A0DFF8E4B03378002B64D0C7F1780807
S31520014160252B16D0751C737853B3252B2AD0B31C57
S31520014170012401341D4613F8012B0AB1252AF8D151
S31520014180424621463046C84700284CD027442E4671
S31520014190E1E77378252B11D0632B15D0642B21D021
S315200141A0732B31D03046D04704464246014630462D
S315200141B0C847002837D027442644CCE70136D1E723
S315200141C00124DDE70124DBE7039B1A1D03921B680B
S315200141D004A800F8103D42460121C84718B301370B
S315200141E00236B8E7039B1A1D03920A22694618680C
S315200141F0D8476846D0470446424601466846C847DE
S3152001420088B127440236A6E7039B1A1D03921D682F
S315200142102846D0470446424601462846C84710B19B
S315200142202744023697E705B0BDE8F04F04B0704742
S3152001423001410120414301202943012008DF704724
S3152001424009DF704700B581B0694600F003F8009890
S3152001425001B000BD0ADF70470CDF704700B581B0A1
S31520014260694600F003F8009801B000BD0DDF7047E4
S3152001427003DF704700B581B0694600F003F8009866
S3152001428001B000BD04DF704714DF704715DF7047AA
S3152001429000B581B0684600F003F8009801B000BD72
S315200142A016DF704706DF704705DF70470FDF70475F
S315200142B010DF70470EDF704700B581B0684600F009
S315200142C003F8009801B000BD11DF704700B581B039
S315200142D0684600F003F8009801B000BD12DF704770
S315200142E000DF704700B581B0694600F003F80098F9
S315200142F001B000BD01DF7047931E222B10D80A2A78
S3152001430010B506D000230C46194400F087F8204644
S3152001431010BD0028F6DA2D230B7040420123F2E767
S3152001432000200870704700BFFFF7E6BF00000000BD
S315200143300000000000000000000000000000000056
S3152001434090F800F06DE9024520F007016FF0000CAE
S3152001435010F0070491F820F040F049804FF0000456
S315200143606FF00700D1E9002391F840F000F1080031
S3152001437082FA4CF2A4FA8CF283FA4CF3A2FA8CF369
S315200143804BBBD1E9022382FA4CF200F10800A4FAD0
S315200143908CF283FA4CF3A2FA8CF3E3B9D1E9042324
S315200143A082FA4CF200F10800A4FA8CF283FA4CF35B
S315200143B0A2FA8CF37BB9D1E9062301F1200182FA15
S315200143C04CF200F10800A4FA8CF283FA4CF3A2FA1B
S315200143D08CF3002BC6D0002A04BF04301A4612BA29
S315200143E0B2FA82F2FDE8024500EBD2007047D1E92C
S315200143F0002304F00305C4F100004FEAC50514F0BB
S31520014400040F91F840F00CFA05F562EA05021CBF8B
S3152001441063EA050362464FF00004A9E7F0B5DFF829
S3152001442078E0164604460F46BEE80F008BB06D466F
S315200144300FC5BEE80F000FC59EE80300B31E45F861
S31520014440040B222B297022D87D1E2846002200E04B
S315200144501A46B4FBF6F10AAB06FB114423440C467B
S3152001446013F8283C00F8013F531C0029F0D1F954D8
S31520014470BB184AB11978687805F8011F0134111B58
S315200144808C4203F80109F5DB38460BB0F0BD00205C
S3152001449038700BB0F0BD00BF44460120024B13B16A
S315200144A0024800F005B8704700000000BD44012015
S315200144B0002301461A46184600F01EB838B50A4CA4
S315200144C00A4D641BA4100AD004F18043013B05EB7D
S315200144D08305013C55F804399847002CF9D1BDE8EC
S315200144E0384000F0CDB800BF904601208C4601200F
S315200144F0704700BF704700BF2DE9F8432C4D064693
S31520014500286898460F469146FFF7F2FF294B1C680B
S31520014510D4F84831002B3ED05A681F2A1CDC02F100
S31520014520010E76B103EB82010124C1F88890D3F8FC
S31520014530880194402043022EC3F88801C1F80881DE
S3152001454023D00232C3F804E0286843F82270FFF72B
S31520014550D1FF0020BDE8F883174B0BB34FF4C87089
S31520014560AFF300800346D8B1D4F848210260002178
S3152001457041600A46C4F848014FF0010EC0F888117F
S31520014580C0F88C11002EDCD0CCE7D3F88C110C436B
S31520014590C3F88C41D5E704F5A673C4F84831BBE7C7
S315200145A02868FFF7A7FF4FF0FF30BDE8F88300BF6B
S315200145B0B84A012040460120000000001046012093
S315200145C014460120184601201C46012020460120C0
S315200145D024460120284601202C4601203046012070
S315200145E034460120384601203C46012020257320EF
S315200145F025642025642C20200A0000002025642023
S315200146003A202564203A20256420200A0000000053
S315200146104A616E00466562004D617200417072000A
S315200146204D6179004A756E004A756C0041756700C7
S31520014630536570004F6374004E6F760044656300C6
S31520014640904601203031323334353637383961627C
S31520014650636465666768696A6B6C6D6E6F7071728B
S31520014660737475767778797A00000000F8B500BF03
S31520014670F8BC08BC9E4670479D4401208D40012010
S31520014680F8B500BFF8BC08BC9E46704769400120BA
S31520014690000000007C490120E44901204C4A012008
S315200146A000000000000000000000000000000000E3
S315200146B000000000000000000000000000000000D3
S315200146C000000000000000000000000000000000C3
S315200146D000000000000000000000000000000000B3
S315200146E000000000000000000000000000000000A3
S315200146F00000000000000000000000000000000093
S315200147000000000000000000000000000000000082
S315200147100000000000000000000000000000000072
S315200147200000000000000000000000000000000062
S315200147300000000000000000010000000000000051
S315200147400E33CDAB34126DE6ECDE05000B00000016
S315200147500000000000000000000000000000000032
S315200147600000000000000000000000000000000022
S315200147700000000000000000000000000000000012
S315200147800000000000000000000000000000000002
S31120014AB00000000000000000D84A012090
S7052001400099
